:020000040800F2
:1000000050080020050100080D0100080F0100083C
:10001000110100081301000815010008000000008C
:1000200000000000000000000000000017010008B0
:1000300019010008000000001B0100081D01000854
:100040001F0100081F0100081F0100081F01000810
:100050001F0100081F0100081F0100081F01000800
:100060001F0100081F0100081F0100081F010008F0
:100070001F0100081F0100081F0100081F010008E0
:100080001F0100081F0100081F0100081F010008D0
:100090001F0100081F0100081F0100081F010008C0
:1000A0001F0100081F0100081F0100081F010008B0
:1000B0001F0100081F0100081F0100081F010008A0
:1000C0001F0100081F0100081F0100081F01000890
:1000D0001F010008311E00081F0100081F01000851
:1000E0001F0100081F0100081F010008DFF810D0E1
:1000F00000F022F8004800470F230008AFF300800B
:10010000500800200648804706480047FEE7FEE703
:10011000FEE7FEE7FEE7FEE7FEE7FEE7FEE7FEE7B7
:1001200021180008ED000008421C10F8011B0029EE
:10013000FBD1801A70470000064C074D06E0E068CE
:1001400040F0010394E8070098471034AC42F6D31E
:10015000FFF7D0FF70480008904800080EB51EA0B9
:1001600000F076F80020102120A24FF6E073CDE9D0
:10017000002102901F221E210A2001F0B7FA002060
:10018000102123A24FF6E073CDE9002102901F2237
:1001900032210A2001F0AAFA0120182122A24FF6EA
:1001A000E073CDE9002102901F2246210A2001F0D0
:1001B0009DFA0120202122A24FF6E073CDE9002113
:1001C00002901F2264210A2001F090FA4FF49660F9
:1001D00002F012F80EBD0000B2E2CAD4363AD6D010
:1001E000CEC4CFD4CABEB2E2CAD400003136583130
:1001F000363AC8ABB6AFB5E7D7D3BCBCCAF5D3D097
:10020000CFDEB9ABCBBEBBB6D3ADC4FA00000000A5
:1002100031365831363A57656C636F6D65C8ABB689
:10022000AFB5E7D7D300000032345832343AC9EEC4
:10023000DBDACAD0D6D0CEC4B2E2CAD40000000005
:1002400033325833323AD7D6CCE5B2E2CAD40000C2
:100250003EB504464FF6FF7000F0CCFC1F20009026
:100260001948028814230021084600F08FFD1F2042
:1002700000901548438802884088143881B20020D5
:1002800000F084FD4FF6FF70104908800120102116
:100290001F234FF6FF72CDE900410290022100209A
:1002A00000F088FC0120102109A2CDE90021029074
:1002B00005484088123881B21F234FF6FF72002094
:1002C00000F078FC3EBD0000400400201800002033
:1002D000687474703A2F2F7777772E6C6364776920
:1002E0006B692E636F6D00002DE9F04704460D46E3
:1002F00016461F46DDE908893B4632462946204618
:1003000000F0BEFC4B4642463946304600F0B8FC91
:100310002B4622464946404600F0B2FCBDE8F08735
:100320000EB52BA0FFF794FF00200C212DA24FF655
:10033000E073CDE9002102901F221E210A2001F066
:10034000D5F901200C2132A24FF6E073CDE900214E
:1003500002901F222D210A2001F0C8F900200C2153
:1003600036A24FF6E073CDE9002102901F223C2116
:100370000A2001F0BBF90020102138A24FF6E073EB
:10038000CDE9002102901F2250210A2001F0AEF990
:10039000012010213CA24FF6E073CDE9002102902C
:1003A0001F2264210A2001F0A1F90020102141A29E
:1003B0004FF6E073CDE9002102901F2278210A2038
:1003C00001F094F94FF4966001F016FF0EBD0000A5
:1003D000B2E2CAD4353AD3A2CEC4CFD4CABEB2E2B6
:1003E000CAD40000365831323A6162636465666788
:1003F00068696A6B6C6D6E6F707172737475767705
:1004000078797A3031323334353637383900000074
:10041000365831323A4142434445464748494A4BAF
:100420004C4D4E4F505152535455565758595A30BF
:1004300031323334353637383900000036583132EE
:100440003A7E21402324255E262A28295F2B7B7DA6
:100450003A3C3E3F2F7C2D2B2E0000003858313681
:100460003A6162636465666768696A6B6C6D6E6F3A
:10047000707172737475767778797A30313233347B
:100480003536373839000000385831363A41424362
:100490004445464748494A4B4C4D4E4F50515253A4
:1004A0005455565758595A30313233343536373817
:1004B00039000000385831363A7E21402324255E29
:1004C000262A28295F2B7B7D3A3C3E3F2F7C2D2B13
:1004D0002E0000002DE9FF4F85B000260027BDF853
:1004E0001800BDF82010884207DD08A906A801F011
:1004F00069FE07A905A801F065FEBDF82000BDF85A
:100500004C10884207DD08A913A801F05BFE07A97B
:1005100012A801F057FEBDF81800BDF8201088425F
:1005200007DD08A906A801F04DFE07A905A801F0FE
:1005300049FEBDF81800BDF84C10884238D1BDF80E
:10054000140003900490BDF81C00BDF81010884200
:1005500003DABDF81C00049008E0BDF81C00BDF8EB
:100560000C10884202DDBDF81C000390BDF8480065
:10057000BDF81010884203DABDF84800049008E086
:10058000BDF84800BDF80C10884202DDBDF84800F7
:100590000390534800880090BDF81830BDF80C2037
:1005A0001946BDF8100000F0F1FB09B0BDE8F08F6E
:1005B000BDF81C00BDF81410A0EB010BBDF8200025
:1005C000BDF81810401A0290BDF84800BDF814108C
:1005D000451ABDF84C00BDF81810A0EB0109BDF894
:1005E0004800BDF81C10A0EB010ABDF84C00BDF896
:1005F0002010401A0190BDF82000BDF84C10884230
:1006000002D1BDF8208004E0BDF82000401E1FFA92
:1006100080F8BDF8184027E0029896FBF0F0BDF88E
:100620001410084480B2049097FBF9F0BDF8141040
:10063000084480B203905E442F44BDF81000BDF81A
:100640000C10884203DD03A904A801F0BBFD244877
:10065000008823460090BDF80C202146BDF810000C
:1006600000F094FB601C84B24445D5DDBDF8200049
:10067000201A00FB0AF6BDF81800201A00FB05F747
:1006800027E0019896FBF0F0BDF81C10084480B2FA
:10069000049097FBF9F0BDF81410084480B2039061
:1006A00056442F44BDF81000BDF80C10884203DDFD
:1006B00003A904A801F086FD09480088234600909C
:1006C000BDF80C202146BDF8100000F05FFB601C57
:1006D00084B2BDF84C008442D3DD00BF65E7000062
:1006E000180000202DE9F0410246002500260020D8
:1006F00000230024002791F803C00CF00F0591F8A7
:1007000003C00CF0100CBCF1000F03D091F802C034
:100710004CEA050591F800C0BCF1000F31D0146817
:1007200000202BE04FF0010C0CFA00F3B1F800C0F0
:100730000CEA03069E4220D183004FF00F0C0CFA06
:1007400003F7BC4305FA03FC4CEA040491F803C028
:10075000BCF1280F06D14FF0010C0CFA00FCC2F8D6
:1007600014C00AE091F803C0BCF1480F05D14FF066
:10077000010C0CFA00FCC2F810C0401C0828D1D3B0
:100780001460B1F800C0BCF1FF0F34DD54680020E4
:100790002EE000F1080C4FF0010808FA0CF3B1F854
:1007A00000C00CEA03069E4221D183004FF00F0CDB
:1007B0000CFA03F7BC4305FA03FC4CEA040491F875
:1007C00003C0BCF1280F05D100F1080C08FA0CF8A1
:1007D000C2F8148091F803C0BCF1480F07D100F1B2
:1007E000080C4FF0010808FA0CF8C2F81080401C01
:1007F0000828CED35460BDE8F0814FF6FF71018028
:10080000022181700421C17070470AB1016100E0CA
:10081000416170472DE9FC5F0546884691469A463E
:10082000DDF830B000953E20019000245FE004EB3D
:100830000410374911F810009BF80010884253D17A
:1008400004EB0410324901EB400040789BF80110A2
:10085000884249D108F10F0083B205F10F0082B23E
:100860004146284600F0ECFB00263BE0002734E040
:100870000D9890B904EB0410254901EB4000801C51
:10088000805D80213941084018B1484600F01EFDC6
:1008900021E0504600F01AFD1DE01E48A0F800902F
:1008A00004EB04101A4901EB4000801C805D80219C
:1008B0003941084018B14146284600F039FA681C11
:1008C00085B20098281A102805D1009D08F1010072
:1008D0001FFA80F803E0781CC7B2082FC8DB00BFFE
:1008E000701CC6B2202EC1DB00BF601C84B2019810
:1008F00084429CDB08484088401E83B2064800883A
:10090000401E82B20021084600F09AFBBDE8FC9F21
:100910005C2F000818000020400400202DE9FC5F37
:100920000546884691469A46DDF830B00095072086
:100930000190002467E004EB840000EB44103A4986
:1009400011F810009BF80010884259D104EB840084
:1009500000EB4410344901EB400040789BF8011053
:1009600088424DD108F1170083B205F1170082B219
:100970004146284600F064FB00263FE0002738E0AF
:100980000D98A0B904EB840000EB4410264901EB5C
:100990004000801C805D80213941084018B14846E4
:1009A00000F094FC23E0504600F090FC1FE01F484C
:1009B000A0F8009004EB840000EB44101A4901EB0E
:1009C0004000801C805D80213941084018B14146BB
:1009D000284600F0ADF9681C85B20098281A18283E
:1009E00005D1009D08F101001FFA80F803E0781C92
:1009F000C7B2082FC4DB00BF701CC6B2482EBDDBD7
:100A000000BF601C84B20198844294DB084840888F
:100A1000401E83B206480088401E82B2002108466C
:100A200000F00EFBBDE8FC9F98370008180000207E
:100A3000400400202DE9FC5F0546884691469A4611
:100A4000DDF830B000950420019000245FE004EB55
:100A50008410374911F810009BF80010884253D1D8
:100A600004EB8410324901EB400040789BF8011000
:100A7000884249D108F11F0083B205F11F0082B2FC
:100A80004146284600F0DCFA00263BE0002734E02F
:100A90000D9890B904EB8410254901EB4000801CAF
:100AA000805D80213941084018B1484600F00EFCB5
:100AB00021E0504600F00AFC1DE01E48A0F800901E
:100AC00004EB84101A4901EB4000801C805D8021FA
:100AD0003941084018B14146284600F029F9681C00
:100AE00085B20098281A202805D1009D08F1010040
:100AF0001FFA80F803E0781CC7B2082FC8DB00BFDC
:100B0000701CC6B2802EC1DB00BF601C84B201988D
:100B100084429CDB08484088401E83B20648008817
:100B2000401E82B20021084600F08AFABDE8FC9F10
:100B30009E390008180000204004002070B50546CA
:100B40000E4614463146284600F070FA204600F062
:100B5000BDFB70BD2DE9F04706460F46154607F16F
:100B6000270083B206F1270082B23946304600F0F2
:100B700067FA00240AE015F8149005EB440090F899
:100B8000018049EA082000F0A1FB641CB4F5C86F9D
:100B9000F1DB07484088401E83B205480088401EAC
:100BA00082B20021084600F04BFABDE8F087000051
:100BB000400400202DE9FE4F0E4617469846DDE919
:100BC0000D9A0C9C2046FFF7AFFA85B208490988B8
:100BD000A1EBC50000EBD071C1F34F0B43463A4681
:100BE000314658468DE8100600F080FDBDE8FE8FC6
:100BF0004004002070B5064616484088401E83B267
:100C000014480088401E82B20021084600F018FAFD
:100C100000224FF480611048FFF7F7FD01221146D2
:100C20000D48FFF7F2FD00240AE0002503E03046FE
:100C300000F04CFB6D1C07480088A842F7D8641CE4
:100C400004484088A042F0D8012291020248FFF7F0
:100C5000DCFD70BD40040020000C0140F8B50446E6
:100C60000D4616461F46054800883B463246294633
:100C70000090204600F08AF8F8BD0000180000201F
:100C80002DE9FF4F85B081468A46002004900390ED
:100C90000798A0EB09050898A0EB0A06CDF8089084
:100CA000CDF804A0002D01DD012705E00DB90027D6
:100CB00002E04FF0FF376D42002E02DD4FF00108D9
:100CC00006E016B94FF0000802E04FF0FF38764218
:100CD000B54201DD2C4600E034464FF0000B21E028
:100CE000019A91B2029A90B200F022F80498284436
:100CF00004900398304403900498A04205DD0498C2
:100D0000001B04900298384402900398A04205DD2D
:100D10000398001B03900198404401900BF10100DF
:100D20001FFA80FB601C8345DADD09B0BDE8F08F57
:100D300070B504460D462946204600F077F9024872
:100D4000008800F0C3FA70BD180000202DE9F041C2
:100D500004460D4616461F462B4632462946204677
:100D6000FFF78EFF3B46224629462046FFF788FFC5
:100D70003B46324639462046FFF782FF3B46324625
:100D800029463046FFF77CFFBDE8F0812DE9F05F92
:100D900004460D4616461F46301B401C1FFA80FABB
:100DA000781B401C1FFA80FB3B46324629462046F2
:100DB00000F046F94FF000080FE04FF0000906E0A0
:100DC0000A9800F083FA09F101001FFA80F9D14571
:100DD000F6DB08F101001FFA80F8D845EDDB074883
:100DE0004088401E83B205480088401E82B2002120
:100DF000084600F025F9BDE8F09F000040040020FF
:100E000008B501210C2000F009FBE020ADF800003E
:100E100010208DF8030003208DF802006946074872
:100E2000FFF760FC40F20340ADF8000010208DF8A1
:100E3000030069460248FFF755FC08BD0008014061
:100E4000000C014010B5FFF7DBFF00F0DBF8F720E6
:100E500000F0CCF9A92000F0B1F9512000F0AEF972
:100E60002C2000F0ABF9822000F0A8F9C02000F09F
:100E7000BDF9112000F0A2F9092000F09FF9C1206E
:100E800000F0B4F9412000F099F9C52000F0AEF966
:100E9000002000F093F90A2000F090F9802000F083
:100EA0008DF9B12000F0A2F9B02000F087F91120EF
:100EB00000F084F9B42000F099F9022000F07EF9E6
:100EC000B62000F093F9022000F078F9422000F0FB
:100ED00075F9B72000F08AF9C62000F06FF9BE203E
:100EE00000F084F9002000F069F9042000F066F9B0
:100EF000E92000F07BF9002000F060F9362000F0D6
:100F000075F9682000F05AF93A2000F06FF9662070
:100F100000F054F9E02000F069F9002000F04EF9EB
:100F2000072000F04BF9102000F048F9092000F0EC
:100F300045F9172000F042F90B2000F03FF941205D
:100F400000F03CF9892000F039F94B2000F036F927
:100F50000A2000F033F90C2000F030F90E2000F0E8
:100F60002DF9182000F02AF91B2000F027F90F2096
:100F700000F024F9E12000F039F9002000F01EF91A
:100F8000172000F01BF91A2000F018F9042000F0D7
:100F900015F90E2000F012F9062000F00FF92F20AD
:100FA00000F00CF9452000F009F9432000F006F9A3
:100FB000022000F003F90A2000F000F9092000F0F7
:100FC000FDF8322000F0FAF8362000F0F7F80F2094
:100FD00000F0F4F8112000F009F9782001F00CF984
:100FE000292000F003F9002000F02AF90122202135
:100FF0000348FFF70AFC4FF6FF70FFF7FBFD10BD3B
:101000000008014010B5002202210748FFF7FDFB50
:10101000642001F0F1F8012202210348FFF7F5FBFB
:10102000322001F0E9F810BD000C014070B5044613
:101030000D462B4622462946204600F001F870BD99
:101040002DE9F04104460D4616461F461149887A9F
:1010500000F0CCF8201200F0B1F8E0B200F0AEF8E9
:10106000301200F0ABF8F0B200F0A8F80949087BA4
:1010700000F0BCF8281200F0A1F8E8B200F09EF8E9
:10108000381200F09BF8F8B200F098F800F0C6F8BB
:10109000BDE8F081400400202DE9FF4F83B0814678
:1010A0008A469346DDE91064404800880290A6F124
:1010B0002000C6B204EBD47009EB6000401E82B27F
:1010C0000AEB0400401E83B2514648460194FFF7E4
:1010D000B7FF129850BB002525E00C2C07D106EB7A
:1010E0004600334901EB800010F8058004E03148E8
:1010F00000EB061010F8058000270DE008F0010055
:1011000018B1584600F0E2F802E0069800F0DEF868
:101110004FEA6808781CC7B204EBD471B7EB610FD3
:10112000ECDB681CC5B2A542D7DB2DE0002529E029
:101130000C2C07D106EB46001D4901EB800010F88E
:10114000058004E01B4800EB061010F8058000271E
:1011500011E01648A0F800B008F0010038B10AEB21
:10116000050291B209EB070290B2FFF7E1FD4FEAE9
:101170006808781CC7B204EBD471B7EB610FE8DBE9
:10118000681CC5B2A542D3DB0849029808800A480A
:101190004088401E83B208480088401E82B2002169
:1011A0000846FFF74DFF07B0BDE8F08F180000209C
:1011B000F82400086C2900084004002010B50446FB
:1011C00000224FF480610848FFF71FFB01221146FF
:1011D0000548FFF71AFB204600F0EEF901229102C4
:1011E0000148FFF712FB10BD000C014010B504468A
:1011F00000224FF480610848FFF707FB002201211D
:101200000548FFF702FB204600F0D6F901229102C3
:101210000148FFF7FAFA10BD000C014010B5024971
:10122000087AFFF7E3FF10BD4004002070B50546C3
:101230000C462846FFF7DAFFE0B2FFF7BFFF70BDAC
:1012400010B504462A20204948812B2088812C2073
:10125000088134B1012C10D0022C1AD0032C30D1CB
:1012600023E04FF4A070184908804FF4F0704880D4
:1012700008213620FFF7DAFF24E04FF4F07012491E
:1012800008804FF4A070488068213620FFF7CEFF19
:1012900018E04FF4A0700C4908804FF4F0704880BB
:1012A000C8213620FFF7C2FF0CE04FF4F07006496A
:1012B00008804FF4A0704880A8213620FFF7B6FFC1
:1012C00000E000BF00BF10BD4004002010B5044680
:1012D000F82101EA2420FFF771FFFC2101EAE40074
:1012E000FFF76CFFE106080EFFF768FF10BD000076
:1012F00070B5002100230F22C47804B3154C246874
:1013000004F4E064C4F5E064210AC1F10403CA40B6
:10131000447804FA03F184781440214309010E4C07
:101320000678A155047804F01F050124AC40057827
:101330006D11AD0005F1E025C5F8004109E0047824
:1013400004F01F050124AC40044D0678761145F8E1
:10135000264070BD0CED00E000E400E080E100E01C
:101360000EB51FA0FEF774FF224A1E210846FFF7A4
:10137000F1FB0120102120A24FF6E073CDE90021FE
:1013800002901F224B212A2000F0B0F9194A1E2199
:101390005A20FFF7DFFB0120102117A24FF6E07360
:1013A000CDE9002102901F224B21662000F09EF91A
:1013B000104A1E219620FFF7CDFB012010210EA21E
:1013C0004FF6E073CDE9002102901F224B21A220AD
:1013D00000F08CF94FF4966000F00EFF0EBD000097
:1013E000B2E2CAD4373ACDBCC6ACCFD4CABEB2E2A0
:1013F000CAD40000A83B00085151000029B1064A98
:1014000012690243044B1A6104E0034A12698243E1
:10141000014B1A61704700000010024029B1064AD2
:1014200092690243044B9A6104E0034A9269824341
:10143000014B9A61704700000010024029B1064A32
:10144000D2680243044BDA6004E0034AD268824364
:10145000014BDA60704700000010024030B50021F7
:101460000022002400232D4D6D6805F00C0121B1F0
:10147000042905D0082923D105E0294D056022E083
:10148000274D05601FE0254D6D6805F47012234D52
:101490006D6805F48034022505EB92421CB9214D9C
:1014A000554305600BE01D4D6D6805F400351DB119
:1014B0001C4D5543056002E0194D5543056002E09F
:1014C000174D056000BF00BF144D6D6805F0F001B9
:1014D0000909154D6B5C0568DD4045600F4D6D6871
:1014E00005F4E061090A104D6B5C4568DD408560DC
:1014F0000A4D6D6805F46051C90A0B4D6B5C456877
:10150000DD40C560054D6D6805F44041890B074D10
:101510006B5CC568B5FBF3F5056130BD001002409A
:1015200000127A0000093D002C0000203C00002041
:1015300010B588B00024194B0FCBCDE90623CDE9B7
:10154000040100BF23E02046FFF77AFE14A0FEF757
:101550007FFE0121102204A850F824004FF6E0730A
:10156000CDE9012100901F221E21142000F0BEF8B9
:10157000104A32211E20FFF7EDFA4FF47A7000F086
:101580003BFE4FF47A7000F037FE601CC4B2042CAE
:10159000D9DB0020FFF754FE08B010BD2848000832
:1015A000B2E2CAD4383AC6C1C4BBD0FDD7AAB2E2AF
:1015B000CAD40000A83B000870B5044600250825E1
:1015C0001BE004F0800028B1012280210C48FFF7C5
:1015D0001CF904E0002280210948FFF716F90022D7
:1015E00040210748FFF711F9012240210448FFF785
:1015F0000CF96006040E681EC5B2002DE1DC70BD5A
:101600000008014010B500F001F810BD0CB5002035
:10161000019000903348006840F480303149086000
:1016200000BF3048006800F4003000900198401C72
:101630000190009818B90198B0F5A06FF1D1294830
:10164000006800F4003010B10120009001E000209B
:1016500000900098012843D12348006840F0100012
:10166000214908600846006820F007000860084625
:10167000006840F0020008601A4840681949486054
:101680000846406848600846406840F4806048600A
:101690000846406820F47C1048600846406840F4E2
:1016A000E81048600846006840F08070086000BF9D
:1016B0000C48006800F000700028F9D00948406824
:1016C00020F00300074948600846406840F00200E7
:1016D000486000BF0348406800F00C000828F9D1BA
:1016E0000CBD000000100240002002402DE9FF4F19
:1016F00083B0064688469146DDE91147109DB24603
:101700004FF0000B71E0BBF1000F40D104EBD4713E
:10171000384A1288A2EB6101B14204DB354949889D
:10172000091B414502DA07B0BDE8F08F2878802810
:1017300002DD4FF0010B58E028780D2806D108EBA8
:1017400004001FFA80F856466D1C1EE0102C0DDDBB
:10175000102128788DE883004A4641463046069B92
:10176000FFF79AFC06F1080086B20EE028788DE8B3
:1017700091004A4641463046069BFFF78DFC2046C5
:1017800004EBD07106EB61018EB26D1C2DE019489F
:101790000088001BB04204DB16484088001B40450F
:1017A00000DAC0E74FF0000B202C08D1CDE900573C
:1017B0004A4641463046069BFFF73CF912E0182C9A
:1017C00008D1CDE900574A4641463046069BFFF70F
:1017D000A5F807E0CDE900574A4641463046069B4A
:1017E000FFF718F8AD1C301986B2287800288AD186
:1017F00000BF98E740040020042808D14FF0E02102
:10180000096941F004014FF0E022116107E04FF057
:10181000E021096921F004014FF0E02211617047D5
:1018200010B51348006840F00100114908600846EF
:101830004068104908400E494860084600680E4953
:1018400008400B4908600846006820F480200860C2
:101850000846406820F4FE0048604FF41F0088608E
:10186000FFF7D0FE4FF000600449086010BD000093
:10187000001002400000FFF8FFFFF6FE08ED00E058
:10188000F8B5002436A0FEF7E3FC4FF6FF70009099
:1018900039484088143883B2374802881421002020
:1018A000FFF774FA00BF1FE00020334B00905D8803
:1018B00005EBD5735B10323B04EBC40707EB041751
:1018C000D9192D4B1E8806EBD6735B10503B04EBE9
:1018D000C40707EB0417D819284B33F814201E232C
:1018E00000F0C8FC601CC4B2052CDDDB40F2DC500B
:1018F00000F082FC4FF6FF7000901F4840881438BB
:1019000083B21D48028814210020FFF73FFA00240B
:101910001FE00120184B00905D8805EBD5735B102C
:10192000323B04EBC40707EB0417D919124B1E888E
:1019300006EBD6735B10503B04EBC40707EB0417B0
:10194000D8190E4B33F814201E2300F093FC601CB2
:10195000C4B2052CDDDB40F2DC5000F04DFCF8BDDC
:10196000B2E2CAD4333A475549BBADD4B2CCEEB398
:10197000E4B2E2CAD4000000400400201E000020AF
:101980000EB54FF6FF70009034484388028800215E
:101990000846FFF7FBF90120102131A24FF6E07352
:1019A000CDE9002102901F221E211420FFF79EFE88
:1019B0004FF4487000F020FC4FF478400090274826
:1019C0004388028800210846FFF7E0F90120102132
:1019D00025A24FF6E073CDE9002102901F221E21BF
:1019E0001420FFF783FE4FF4487000F005FC4FF41D
:1019F000FC60009019484388028800210846FFF7E0
:101A0000C5F9012010211AA24FF6E073CDE900219B
:101A100002901F221E211420FFF768FE4FF4487029
:101A200000F0EAFB1F2000900C4843880288002148
:101A30000846FFF7ABF9012010210FA24FF6E07323
:101A4000CDE9002102904FF478421E211420FFF7C7
:101A50004DFE4FF4487000F0CFFB0EBD4004002057
:101A6000424C20546573740052454420000000002D
:101A7000475245454E200000424C5545200000008D
:101A80002DE9F843002460A0FEF7E2FB4FF6FF705B
:101A9000009063484088143883B26148028814215A
:101AA0000020FFF773F900BF48E05E4830F81400EB
:101AB0005D490880DFF868C1BCF8025005EBD57CB1
:101AC0004FEA6C0CACF1500CC4EB0419CC440CF193
:101AD0003C0C1FFA8CF3DFF848C1BCF8006006EB41
:101AE000D67C4FEA6C0CACF1500CC4EB0419CC441E
:101AF0000CF13C0C1FFA8CF2DFF824C1BCF8027028
:101B000007EBD77C4FEA6C0CACF1500CC4EB04191A
:101B1000CC441FFA8CF1DFF808C1BCF8008008EB58
:101B2000D87C4FEA6C0CACF1500CC4EB0419CC44DB
:101B30001FFA8CF0FFF70AF9601CC4B2052CB4DB65
:101B400040F2DC5000F058FB4FF6FF700090344834
:101B50004088143883B23248028814210020FFF7ED
:101B600015F9002448E02F4830F814002E49088069
:101B7000DFF8ACC0BCF8026006EBD67C4FEA6C0C18
:101B8000ACF1500CC4EB0419CC440CF13C0C1FFA22
:101B90008CF3DFF88CC0BCF8007007EBD77C4FEA01
:101BA0006C0CACF1500CC4EB0419CC440CF13C0CA3
:101BB0001FFA8CF2DFF868C0BCF8028008EBD87C12
:101BC0004FEA6C0CACF1500CC4EB0419CC441FFA76
:101BD0008CF1DFF84CC0BCF8005005EBD57C4FEA27
:101BE0006C0CACF1500CC4EB0419CC441FFA8CF013
:101BF000FFF734F8601CC4B2052CB4DB40F2DC50B3
:101C000000F0FAFABDE8F883B2E2CAD4323A475596
:101C100049BED8D0CECCEEB3E4B2E2CAD4000000C4
:101C2000400400201E000020180000202DE9FC5F69
:101C3000002475A0FEF70CFB4FF6FF70009079486A
:101C40004088143883B27748028814210020FFF7B7
:101C50009DF800BF5DE0744830F8140073490880B7
:101C60007048458805EBD57040101438C4EB04115A
:101C7000084481B26B48068806EBD67040101538D0
:101C800004EB840200EB820080B2DFF898C1CDE95A
:101C90000001BCF8027007EBD77C4FEA6C0CACF18A
:101CA000490CC4EB041BDC441FFA8CF3DFF874C14D
:101CB000BCF8008008EBD87C4FEA6C0CACF1330C1C
:101CC00004EB840B0CEB8B0C1FFA8CF2DFF854C185
:101CD000BCF8029009EBD97C4FEA6C0CACF1140C07
:101CE000C4EB041BDC441FFA8CF1DFF838C1BCF8EC
:101CF00000A00AEBDA7C4FEA6C0CACF1500C04EB60
:101D0000840B0CEB8B0C1FFA8CF0FEF7EDFA601CC9
:101D1000C4B2052C9FDB40F2DC5000F06DFA4FF6A8
:101D2000FF7000903F484088143883B23D480288D5
:101D300014210020FFF72AF800245DE03A4830F82B
:101D400014003A4908803748458805EBD5704010A3
:101D50001438C4EB0411084481B23248068806EBFB
:101D6000D6704010153804EB840200EB820080B27C
:101D7000DFF8B0C0CDE90001BCF8027007EBD77CFA
:101D80004FEA6C0CACF1490CC4EB041BDC441FFAA9
:101D90008CF3DFF890C0BCF8008008EBD87C4FEAE9
:101DA0006C0CACF1330C04EB840B0CEB8B0C1FFABA
:101DB0008CF2DFF870C0BCF8029009EBD97C4FEAD6
:101DC0006C0CACF1140CC4EB041BDC441FFA8CF15A
:101DD000DFF850C0BCF800A00AEBDA7C4FEA6C0CCC
:101DE000ACF1500C04EB840B0CEB8B0C1FFA8CF059
:101DF000FEF770FB601CC4B2052C9FDB40F2DC5088
:101E000000F0FAF9BDE8FC9FB2E2CAD4343A475573
:101E10004920547269616E676C65CCEEB3E4B2E23E
:101E2000CAD40000400400201E000020180000203A
:101E300008B540F22551174800F0A6F8012810D146
:101E4000144800F05DF9C1B2134802880088401CB4
:101E5000114B18801148815440F225510D4800F073
:101E60002AF840F224410B4800F08EF801280FD1E7
:101E70000848008800900748001D00880090002056
:101E80000649054A1288885401200549087000BF98
:101E900008BD000000380140140000204000002070
:101EA0001600002001F40072B2F5007F00D100BFDF
:101EB000CA430280704710B50022002340F66A141E
:101EC000A14200D100BF0A1201249440A3B2DC4316
:101ED000048010BD21B1828942F40052828104E065
:101EE00082894DF6FF731A408281704710B504460F
:101EF0002048844209D101218803FFF79FFA00217D
:101F00004FF48040FFF79AFA32E01B48844209D12F
:101F100001214804FFF772FA00214FF40030FFF767
:101F20006DFA25E01548844209D101218804FFF7A4
:101F300065FA00214FF48020FFF760FA18E010489E
:101F4000844209D10121C804FFF758FA00214FF457
:101F50000020FFF753FA0BE00A48844208D1012120
:101F60000805FFF74BFA00214FF48010FFF746FAFF
:101F700010BD00000038014000440040004800400F
:101F8000004C00400050004070B502460024002381
:101F90000025002040F66A16B14200D100BFC1F30F
:101FA000421501F01F03012606FA03F3012D02D1A9
:101FB0009689334006E0022D02D1168A334001E0B3
:101FC000968A33400C12012606FA04F4168834402F
:101FD00013B10CB1012000E0002070BDF0B5034644
:101FE000002400260025002040F66A17B94200D1DF
:101FF00000BF1846C1F3421401F01F06012707FA7B
:1020000006F5012C01D10C3004E0022C01D1103076
:1020100000E014301AB107682F43076002E0076838
:10202000AF430760F0BD00002DE9F04786B00546DC
:102030000E460024A24600BFA1460027B08900B189
:1020400000BF2F462C8A4CF6FF700440F0880443F2
:102050002C82AC894EF6F3100440B08831890843D5
:10206000718908430443AC81AC8A4FF6FF400440B9
:10207000B0890443AC8201A8FFF7F0F91F488742FA
:1020800002D1DDF810A001E0DDF80CA0A88900F471
:10209000004040B10AEBCA0000EB0A103168490069
:1020A000B0FBF1F807E00AEBCA0000EB0A10316858
:1020B0008900B0FBF1F86420B8FBF0F004012009BE
:1020C000642101FB1089A88900F4004040B132204E
:1020D00000EBC900B0FBF1F000F00700044308E09A
:1020E000322000EB09106421B0FBF1F000F00F008A
:1020F00004432C8106B0BDE8F087000000380140A1
:1021000001468888C0F3080070474FF416510160FB
:1021100000218180C18001810C21418100218181C8
:10212000704702E008C8121F08C1002AFAD17047A0
:102130007047002001E001C1121F002AFBD1704747
:102140002DE9F04104460D4616461F46DDF818807D
:10215000EA1991B2A21990B24246FEF7EFFCEA19D1
:1021600091B2A21B90B24246FEF7E8FCEA1B91B284
:10217000A21990B24246FEF7E1FCEA1B91B2A21B03
:1021800090B24246FEF7DAFCAA1991B2E21990B277
:102190004246FEF7D3FCAA1991B2E21B90B2424626
:1021A000FEF7CCFCAA1B91B2E21990B24246FEF7B0
:1021B000C5FCAA1B91B2E21B90B24246FEF7BEFCE0
:1021C000BDE8F08102880B8803800A807047000018
:1021D00010B56FF00400FFF70FFB044800680449D6
:1021E000B0FBF1F00349086010BD000000000020C2
:1021F00000127A002800002010B504464FF47A71CE
:1022000004FB01F000F002F810BD000010B5184BFF
:102210001B6800FB03F2012805D1A2F108034FF06F
:10222000E024636104E0A2F10A034FF0E02463615B
:1022300000234FF0E024A36123461B6943F0010310
:10224000236100BF4FF0E023196901F001031BB1C6
:1022500001F48033002BF5D04FF0E0231B6923F00D
:1022600001034FF0E02423610023A36110BD0000AF
:10227000280000202DE9FF4F81B08246174698467E
:10228000DDF838B0002445464FEA4800C0F10306A7
:10229000BBF1000F1FD01BE0A14608E04B462246D1
:1022A000009750460299FFF74BFF09F10109A94534
:1022B000F4DD002E04DA042000FB0460861D06E035
:1022C000601B042101FB006000F10A066D1E641C06
:1022D000AC42E1DD18E015E02B462246009750465F
:1022E0000299FFF72DFF002E04DA042000FB0460A2
:1022F000861D06E0601B042101FB006000F10A0658
:102300006D1E641CAC42E7DD05B0BDE8F08FFFF741
:102310005FFF4FF4E13000F081F8FEF793FD11E02C
:1023200000F012F8FFF72CFBFFF7AAFBFFF7A8FA63
:10233000FFF77CFCFDF7F4FFFDF710FFFFF710F847
:10234000FFF7F6F8ECE700000EB51EA0FDF780FFE2
:102350000120102121A21F23CDE900210290DA02E1
:102360001E210020FEF726FC0120102117A21F23AA
:10237000CDE900210290DA023C210020FEF71AFC90
:102380000120102118A21F23CDE9002102904FF453
:10239000FC625A210020FEF70DFC0120102118A23A
:1023A0001F23CDE9002102901A4678210020FEF774
:1023B00001FC40F2DC50FFF71FFF40F2DC50FFF75A
:1023C0001BFF0EBDC8ABB6AFB5E7D7D3D7DBBACFCF
:1023D000B2E2CAD4B3CCD0F200000000C8ABB6AFB2
:1023E000B5E7D7D300000000332E352220494C49F1
:1023F0003934383820333230583438300000000057
:102400007869616F46656E67405144746563682002
:10241000323031382D30382D3036000010B586B0CE
:102420000446012144F20500FEF7F8FF05A8FEF777
:10243000E4F94FF40070ADF8140018208DF817007F
:1024400003208DF8160005A92948FEF74BF905A8C9
:10245000FEF7D3F94FF48060ADF8140004208DF836
:10246000170005A92248FEF73DF901218803FEF770
:10247000D5FF2048FFF73AFD01A8FFF746FE01947B
:102480000020ADF80800ADF80A00ADF80C000C20F3
:10249000ADF80E000020ADF8100001A91548FFF7B7
:1024A000C3FD20211348FFF7FDFC10211148FFF761
:1024B000F9FC012240F225510E48FFF78FFD012261
:1024C00040F224410B48FFF789FD01210948FFF73D
:1024D00001FD25208DF8000001208DF801008DF808
:1024E00002008DF803006846FEF702FF06B010BD3B
:1024F000000801400038014000000000000000001A
:1025000000000000000004040404040400040000AF
:1025100000140A0A0000000000000000000014146B
:102520003F140A3F0A0A000000041E1505060C1499
:10253000150F0400000012150D0A142C2A120000B9
:102540000000040A0A1E15150936000000020201E7
:102550000000000000000000002010080808080823
:1025600008102000000204080808080808040200F7
:1025700000000004150E0E15040000000000040405
:10258000041F04040400000000000000000000001C
:102590000002020100000000001F00000000000017
:1025A0000000000000000000000200000010080809
:1025B000080404020202010000000E1111111111A1
:1025C000110E00000000040604040404040E0000C0
:1025D00000000E1111080402011F000000000E117E
:1025E000100C1010110E00000000080C0A0A091E41
:1025F0000818000000001F01010F1010110E00004C
:1026000000000E09010F1111110E000000001F093A
:10261000080404040404000000000E11110E11113E
:10262000110E000000000E1111111E10120E0000FC
:102630000000000004000000000400000000000092
:102640000004000000040400002010080402040834
:1026500010200000000000001F00001F000000000C
:1026600000020408102010080402000000000E11EF
:10267000110804040004000000000E111915151DB6
:10268000011E0000000004040C0A0A1E12330000A0
:1026900000000F12120E1212120F000000001E1185
:1026A00001010101110E000000000F12121212129E
:1026B000120F000000001F120A0E0A02121F000073
:1026C00000001F120A0E0A020207000000001C127E
:1026D00001013911120C000000003312121E1212F7
:1026E0001233000000001F0404040404041F00004F
:1026F00000003E0808080808080907000000371213
:102700000A060A0A1237000000000702020202024B
:10271000223F000000001B1B1B1B15151515000098
:1027200000003B1216161A1A1217000000000E11B4
:1027300011111111110E000000000F12120E0202F1
:102740000207000000000E1111111117190E1800D8
:1027500000000F12120E0A121237000000001E11A4
:1027600001060810110F000000001F1504040404E6
:10277000040E00000000331212121212120C00009C
:1027800000003312120A0A0C0404000000001515A0
:10279000150E0A0A0A0A000000001B0A0A04040AAD
:1027A0000A1B000000001B0A0A040404040E0000B7
:1027B00000001F0908040402121F0000001C04048A
:1027C0000404040404041C000002020204040808B7
:1027D00008100000000E08080808080808080E0085
:1027E00000040A00000000000000000000000000DB
:1027F000000000000000003F000400000000000096
:102800000000000000000000000C121C123C000040
:1028100000000302020E1212120E0000000000005F
:10282000001C1202021C000000001810101C1212E2
:10283000123C000000000000000C121E021C0000F0
:1028400000003804041E0404041E00000000000000
:10285000003C120C021E221C00000302020E121287
:10286000123700000000040000060404040E0000FB
:1028700000000800000C0808080808070000030210
:10288000023A0A0E12370000000007040404040490
:10289000041F000000000000000F151515150000B2
:1028A00000000000000F12121237000000000000AC
:1028B000000C1212120C000000000000000F121297
:1028C000120E020700000000001C1212121C103829
:1028D00000000000001B06020207000000000000CC
:1028E000001E020C101E000000000004040E040470
:1028F0000418000000000000001B1212123C00002F
:10290000000000000037120A0C0400000000000064
:102910000015150E0A0A000000000000001B0A0442
:102920000A1B0000000000000037120A0C04040318
:1029300000000000001E0804041E00000018080823
:102940000804080808081800080808080808080803
:102950000808080800060404040804040404060027
:102960000225180000000000000000000000000028
:10297000000000000000000000000000000000084F
:1029800008080808080800001818000000486C240F
:102990001200000000000000000000000000002401
:1029A00024247F1212127F12121200000000081C51
:1029B0002A2A0A0C1828282A2A1C080800000022A3
:1029C000251515152A585454542200000000000CF7
:1029D0001212120A76252911916E000000060604D3
:1029E0000300000000000000000000000040201074
:1029F0001008080808080810102040000002040809
:102A00000810101010101008080402000000000048
:102A100008086B1C1C6B0808000000000000000088
:102A2000080808087F0808080800000000000000E7
:102A30000000000000000000060604030000000083
:102A400000000000FE000000000000000000000088
:102A500000000000000000000606000000008040AA
:102A60004020201010080804040202000000001892
:102A70002442424242424242241800000000000820
:102A80000E08080808080808083E00000000003C7E
:102A90004242422020100804427E00000000003C18
:102AA0004242201820404042221C0000000000202A
:102AB0003028242422227E20207800000000007E7E
:102AC0000202021A26404042221C00000000003888
:102AD0002402021A26424242241800000000007E0E
:102AE0002222101008080808080800000000003C16
:102AF0004242422418244242423C00000000001896
:102B00002442424264584040241C0000000000005F
:102B10000000181800000000181800000000000055
:102B20000000000800000000000808040000004049
:102B300020100804020408102040000000000000DB
:102B400000007F0000007F00000000000000000285
:102B50000408102040201008040200000000003C7F
:102B60004242464020101000181800000000001CCF
:102B7000225A555555552D42221C000000000008D0
:102B800008181414243C224242E700000000001FF1
:102B90002222221E22424242221F00000000007C0C
:102BA0004242010101010142221C00000000001FFD
:102BB0002242424242424242221F00000000003FA5
:102BC0004212121E12120242423F00000000003F59
:102BD0004212121E12120202020700000000003C04
:102BE0002222010101712122221C0000000000E7C5
:102BF000424242427E42424242E700000000003E22
:102C00000808080808080808083E00000000007CC2
:102C100010101010101010101010110F000000777D
:102C200022120A0E0A121222227700000000000768
:102C30000202020202020202427F0000000000774C
:102C4000363636362A2A2A2A2A6B0000000000E38C
:102C500046464A4A52525262624700000000001C37
:102C60002241414141414141221C00000000003FFE
:102C7000424242423E020202020700000000001CE3
:102C80002241414141414D53321C60000000003F50
:102C90004242423E1212222242C700000000007C43
:102CA0004242020418204042423E00000000007FE1
:102CB0004908080808080808081C0000000000E788
:102CC0004242424242424242423C0000000000E78F
:102CD0004242222424141418080800000000006B4B
:102CE000494949495555362222220000000000E793
:102CF000422424181818242442E70000000000771A
:102D00002222141408080808081C00000000007E95
:102D10002120101008040442423F000000780808F7
:102D200008080808080808080808780000000202D7
:102D3000040408080810102020204040001E101035
:102D4000101010101010101010101E000038440049
:102D50000000000000000000000000000000000073
:102D60000000000000000000000000FF0006080056
:102D70000000000000000000000000000000000053
:102D80000000003C4278444242FC00000000000386
:102D90000202021A26424242261A000000000000E7
:102DA00000000038440202024438000000000060C5
:102DB000404040784442424264D800000000000095
:102DC0000000003C427E0202423C0000000000F095
:102DD0008808087E08080808083E00000000000077
:102DE0000000007C22221C023C42423C0000000306
:102DF0000202023A4642424242E700000000000C52
:102E00000C00000E08080808083E00000000003012
:102E100030000038202020202020221E0000000347
:102E200002020272120A1612227700000000000E3F
:102E30000808080808080808083E0000000000000C
:102E40000000007F9292929292B700000000000072
:102E50000000003B4642424242E700000000000002
:102E60000000003C42424242423C000000000000A0
:102E70000000001B26424242221E02070000000002
:102E80000000007844424242447840E000000000E4
:102E9000000000774C040404041F00000000000040
:102EA0000000007C42023C40423E00000000000066
:102EB0000008083E0808080808300000000000006C
:102EC000000000634242424262DC00000000000059
:102ED000000000E74224241408080000000000005D
:102EE000000000EB49495555222200000000000077
:102EF0000000007624181818246E0000000000005E
:102F0000000000E74224241418080807000000000D
:102F10000000007E22100808447E000000C020202F
:102F200020202010202020202020C0001010101071
:102F300010101010101010101010101000060808BB
:102F40000808081008080808080806000C32C20023
:102F5000000000000000000000000000C9EE0000BA
:102F600027FC140414A4811042084040104017FCB0
:102F70002040E0E0215022482C4620400040DBDA8F
:102F800011041124112411241124FD2411241124CD
:102F90001124112411241D24E124422402040404D8
:102FA000CAD00200010000007FFC01000100010006
:102FB0003FF82108210821082108212821100100BB
:102FC0000100C8AB00000000018002400430180876
:102FD00060061FF90100010001003FF80100010037
:102FE00001007FFEB6AF0000000000203E20007C04
:102FF000002200227F2210221022122212222242BC
:1030000023423D82009CB5E70000010001001FF053
:10301000610C410441047FFC4104410441047FFCF4
:1030200001000102010201FCD7D3000000003FF8BB
:10303000001000600080010000807FFE0040004022
:1030400000200020002018400780BCBC1020102069
:10305000102013FEFC201020102015FC188430884E
:10306000D04810501020105051882606CAF5010093
:103070000120011001107FFC03800540054009205C
:103080001110210841048102010001000100D3D088
:1030900002000200FFFE040004000FF008101810E8
:1030A0002FF0481088100FF0081008100850082062
:1030B000CFDE00007BF84A08520853F86208520835
:1030C0004BF84A444A486A3052204210428843062C
:1030D0004200B9AB00800480048008400840102002
:1030E00020104208820604000440082010203FF00F
:1030F00010100000CBBE00003FF8000800087FE879
:10310000000800081F8810881088108810881F8801
:10311000108800280010BBB600800080FC8004FCF2
:10312000050449082A401440104028A024A0451056
:103130008110020804040802D3AD00002080133C73
:10314000122402240224F2241224122412B413287A
:1031500012201020282047FE0000C4FA09000900B0
:1031600011FC32045448995011481244144411403F
:10317000108002005104511290120FF0B4BF0000F1
:103180000020102013FE202026244A247A24122412
:10319000222423FC7C20002204227822003CC9AB9C
:1031A0000000000004000FF0102020207FFC20848D
:1031B0002084208420843FF82000200220021FFE6B
:1031C000CCEE00000000204023FE204079FC2204C9
:1031D00023FC220423FC220423FC3A0465FA019810
:1031E0000204B3E40000010001007FFE022004108D
:1031F000040808043FFC044204400440044208421E
:103200001042607EBED800000000207E3E804880D4
:10321000488048FE48827F8208820C8214FA128419
:103220002280218040FED0CE000000007F84220852
:10323000223022C0220222047FC8223022C222026F
:103240002204220822304040BBAD000000007FFE77
:1032500000000FF011101110111051125FF25112F5
:10326000511251124FF240027FFCD4B20000000014
:103270007FFE47E24812481247E24FF250125012C6
:103280005112511242924472580A3FFCCDBC0000C8
:1032900000003FFE440247F24C22536240824362E8
:1032A0005E1A41824062430240C240223FFCC6ACEB
:1032B000000000402040204020403FFE2000200031
:1032C00020003FE02010201020102010401040105F
:1032D000CFD4000000003FFC200420043FFC200469
:1032E00020041FF824441448144814480C50044087
:1032F0007FFECABE000000003FFC0000000000008E
:103300007FFE008008900888108810842084208226
:1033100040820780B2CB0000002008207FFE002002
:1033200000783F881108089009207FFE0180034043
:103330000D30310C4002B5A500000010081004202B
:103340003FF8210421043FFC210421043FF801003F
:103350007FFE010001000100D6D000000100010045
:1033600001003FFC21042104210421042104210443
:103370003FFC0100010001000100D3A20000000099
:1033800008207FFE0820092001003FF821082108BD
:1033900021081FF4014002200C10700ECEC4000062
:1033A0000100010000803F7C081008100410042078
:1033B000022002400180018002601C18E006D7DB79
:1033C00000000000102011FE2202220249FC5800D9
:1033D000300013FE2528792401240D24722202A234
:1033E000BACF0000000001800240043018086006D7
:1033F0001FF800001FF820042004200420042004EB
:103400001FF8C1C10000010001007FFE00003FF86D
:1034100020083FF83FF8400647C248240820082209
:103420001022603EB6C80000000000803FFE44103D
:103430005FFC4410441043F040005FF84408423001
:1034400041C04360BC1EB2E20000000067C21452DB
:1034500005520552C55225520552055215521752B2
:10346000228222424442483ECAD400000000201476
:10347000101417FE00120010601013F0109010903E
:103480001090149214EA1F0A0006B3CC000000004A
:1034900019FE7202120212027DFC18001BFE34207B
:1034A000502053FE10201020102013FED0F20000F8
:1034B000000000803FFE400047FC4208413040C011
:1034C0005FFE404240424044404840404440B5F7DF
:1034D0000000000023FE122202FA0222E22212FE63
:1034E0001272128A128A128A16BA1A421202040E32
:1034F000B9E20000010001041108090809100920BF
:103500007FFE044004400440044008420842104248
:10351000607CB0E60000000048FE49004900490018
:103520007EFE41824144794445284528451045287E
:1035300046440382C8A800001000100013FC7D045C
:103540001104190418843488504850501020105029
:10355000108813041402CBF9000000003F7C2040C7
:1035600020403E40227E2244224422443E84208445
:103570002084408441044204C6C100003FF8200872
:1035800020083FF8241022202FF8222022203FFC80
:1035900022204220442084200820C4BB04407FFC19
:1035A00004401FF010101FF010101FF00400FFFE69
:1035B00011103FF8D116115011200100D0FD2080CC
:1035C000108010FE0100FE0021FC20243C2424A0D9
:1035D00024A024BC24A024A04560553E8A00D7AA7C
:1035E000202020202020FDFC4020504093FEFC4065
:1035F000108011FC1C04F088505010201010101086
:10360000BFAA00007FFC082008200820082008200E
:10361000FFFE08200820082008201020102020206D
:103620004020D4B4000027FE1420144085FC45043B
:1036300045FC150415FC2524E42024A829242A226D
:1036400030A00040D2BA0080204017FE1120812017
:10365000423C4244166412942348E248223022201D
:10366000225022880306BEA70FE0082008200FE0A2
:10367000082008200FE000007EFC428442847EFC8B
:10368000428442847EFC4284CDF800007FFC4004EA
:103690004004421452944A54442444244A544A5400
:1036A00052946104400440144008D5BE1020082004
:1036B00008207E20003E04204420442025FC2904CC
:1036C00029040F04F104410401FC0104B0B41040CA
:1036D0001020102013FEFA02144410401BFE308804
:1036E000D088110810D01020105050882304BCFC42
:1036F000201020103B7C211441FE7A14A27C27105C
:10370000F97C251025FE22102A10350028FE000025
:10371000D0A310401020102011FEFC0010883104AE
:103720003A02548850889050105010201050108841
:103730001306D7BC01404120212023FE0220162081
:103740001BFC1220222023FCE2202220222023FE28
:1037500022000200B4A520202020782049FC9124DA
:103760007D24552455247DFC552454207C28542444
:1037700057FE45028C00C3FE1110111017FC1110EA
:10378000FC0013F8120817F81A0833F8D04017FC99
:1037900010A0111052082406C9EE0000000000001D
:1037A0001000000800080C7FFC04401001C8A002B3
:1037B000186042301832231812C3001403000403A7
:1037C0000C047FF0080F80080B407813601833203A
:1037D00018631818831C190308180300000300005D
:1037E0000000DBDA00000000000004100C04180CDC
:1037F00004108C04108C04108C04108C04D08C3FAA
:10380000108C04108C04108C04108C04108C041088
:103810008C04108C05F08C0E208C78208C20408C31
:1038200000808C01000C02000C000000CAD00000D7
:103830000000000000300000180000180800001C04
:103840001FFFE000180000182007FFF004182004F4
:103850001820041820041820041820041820041824
:10386000200418200418200418E004184000180050
:10387000001800000000D6D000000000000000008A
:1038800000000000001800001800001800001800D8
:103890003FFFFE3018063018063018063018063084
:1038A00018063FFFFE301806001800001800001828
:1038B00000001800001800000000000000000000D8
:1038C000CEC4000000000000000000003800001C12
:1038D00000000600FFFFFF06003006003003006016
:1038E0000300600180C000C18000E30000360000DA
:1038F0001C0000770003C1E01E003C6000070000D0
:1039000000000000000000000000B2E20000000023
:10391000000000000000000040000321FF33398355
:1039200033118333019B33C19B33719B33199B3319
:10393000019B33019B33119B3319B3333030333048
:103940006C0330C6036383032E01BE000000000039
:1039500000000000CAD400000000000000000000C9
:1039600000004000D83000CE1800C21C00C001FF8B
:10397000FF0000C0F800C01800C019FFC0181840B0
:103980001818601918601B18611E18311C1FB139F6
:10399000F01910000F000000000000000000D7D652
:1039A0000000000000060000000300000000C0004E
:1039B0000001C0C0000107C00001FF00021FFE009F
:1039C00007F01C0007C070000F00E0000E03F000BD
:1039D0001C0FF0003C0F70003C00E0001800C0001D
:1039E0000000C0000000C0000000600000002000D7
:1039F000000037000001FF00007FF80007F83000EA
:103A00001F8030000080300000C030000060600087
:103A10000018E000000FC0000006000000000000D9
:103A2000CCE50000000000000000000000C0000025
:103A300000E0002001B800703FF80061FFC000C343
:103A4000030001C60600038C060003080C000608EC
:103A50000C000E18183F1E101BF31F903F0700802C
:103A60003C1C0190707C019060FE01A0C3F801A095
:103A70000FD803A00818036000180340001803C003
:103A80000018038000180300001800000018000050
:103A900000100000003000000030000000000000B6
:103AA0000000B2E200000000000000000000000082
:103AB00000000000020C1008071FF80403BFF0020A
:103AC00001BC300303EC3003015C600300D86003E9
:103AD00000D860038098620361B8430771B1430660
:103AE000313243063376C3063A64C7063EECC0065D
:103AF0003E78C0063C3040067C70000678E06006E8
:103B00007BFFF006F7C00006E40000064000000658
:103B1000000000060000007C00008FF000007C0028
:103B200000000000CAD400000000000000000000F7
:103B3000000000003F0000007F80000001800000C6
:103B400000C0000000C0000000CE038000CFFFC016
:103B500000DD41800FFE0007FFFC000C00F00018A4
:103B60000FC03E19FF40F311BC6083307FE003B10A
:103B7000FE200333802003700030036000100360D8
:103B8000001807C0000C07C00004078000020100F5
:103B90000003000000010000000000000000000021
:103BA0000000000000000000FFFFFFFFFFFFFFFF1D
:103BB000FFFFFFFFFFFFFFFFFFFFFFFFFFFFFFFF15
:103BC000FFFFFFFFFFFFBEF7FFFFDEFF38C6928C4F
:103BD0008E6B6E6B107C96AD3CE7FFFFFFFFFFFF27
:103BE000FFFFFFFFFFFFFFFFFFFFFFFFFFFFFFFFE5
:103BF000FFFFFFFFFFFFFFFFFFFFFFFFFFFFFFFFD5
:103C0000FFFFFFFFFFFFFFFFFFFFFFFFFFFFFFFFC4
:103C1000FFFFFFFFFFFF5DEF159D4F636C420A3210
:103C20008829461925194521E8318E6B38C6FFFFD2
:103C3000FFFFFFFFFFFFFFFFFFFFFFFFFFFFFFFF94
:103C4000FFFFFFFFFFFFFFFFFFFFFFFFFFFFFFFF84
:103C5000FFFFFFFFFFFFFFFFFFFFFFFFFFFFFFFF74
:103C6000FFFFFFFF36A51053104B51530F4B6C3A1B
:103C7000E93167212519E410A30862008308CB52BB
:103C80009AD6FFFFFFFFFFFFFFFFFFFFFFFFFFFFD2
:103C9000FFFFFFFFFFFFFFFFFFFFFFFFFFFFFFFF34
:103CA000FFFFFFFFFFFFFFFFFFFFFFFFFFFFFFFF24
:103CB0003CE77063B363B87CF56311434D32EA2986
:103CC000882126190519051904110411E41083002F
:103CD000A308728CFFFFFFFFFFFFFFFFFFFFFFFF47
:103CE000FFFFFFFFFFFFFFFFFFFFFFFFFFFFFFFFE4
:103CF000FFFFFFFFFFFFFFFFFFFFFFFFFFFFDBDE19
:103D00004B3AF042356C544BB1322E2AEB21A921AB
:103D1000671905190411041104110411041105197E
:103D2000E4104200AF73FFFFFFFFFFFFFFFFFFFF45
:103D3000FFFFFFFFFFFFFFFFFFFFFFFFFFFFFFFF93
:103D4000FFFFFFFFFFFFFFFFFFFFFFFF5DEF0932F8
:103D50004C32104B8F324F2A2E2ACC1989198921C7
:103D60004719051904110411C410C41004110411D9
:103D70000411E41042003184FFFFFFFFFFFFFFFF4B
:103D8000FFFFFFFFFFFFFFFFFFFFFFFFFFFFFFFF43
:103D9000FFFFFFFFFFFFFFFFFFFFFFFFEC52471991
:103DA0004C320B2AEC21EC210C22915BEE4A0611DD
:103DB00026190419E410E410A7296621A30805199F
:103DC00004110411E4108200F7BDFFFFFFFFFFFFA5
:103DD000FFFFFFFFFFFFFFFFFFFFFFFFFFFFFFFFF3
:103DE000FFFFFFFFFFFFFFFFFFFF35A583088821CF
:103DF00088218921AA218A216B42718CFFFF728C54
:103E000083080411C4082942FBDE5DEFEC5A8308E5
:103E10000411041104118308E831DFFFFFFFFFFFE5
:103E2000FFFFFFFFFFFFFFFFFFFFFFFFFFFFFFFFA2
:103E3000FFFFFFFFFFFFFFFFBEF7C731C4102519CB
:103E4000261947194719A8298A52284A55ADFFFF54
:103E5000E831A30805194D6B4D6BFFFF7DEF452140
:103E6000C410041104110411620076ADFFFFFFFFBE
:103E7000FFFFFFFFFFFFFFFFFFFFFFFFFFFFFFFF52
:103E8000FFFFFFFFFFFFFFFF96B56200041104195B
:103E900005110519C4088B4AB6B55DEFF7BDFFFFE4
:103EA0008E6B62002942AA5A0842FFFFFFFFCC52E4
:103EB0008308041104110411A308AD52FFFFFFFF92
:103EC000FFFFFFFFFFFFFFFFFFFFFFFFFFFF1CE7FD
:103ED000FFFFFFFFFFFFFFFF4E63620004110411AD
:103EE0000411E41062008E63FFFFFFFFFFFFFFFF7E
:103EF000CF730100F39C2C6396B5FFFFFFFF2D5B92
:103F00008300041104110411E41067213DEFFFFF49
:103F1000FFFFFFFFFFFFFFFFF8BDB7B59EEFCB52DE
:103F2000B394FFFFFFFFDFFFE831A3080411041182
:103F300004110411A3084942FFF7FFF7FFFFFFFF39
:103F40006A4A01007284FFFFFFFFFFF7DFEF093AC3
:103F5000A3080411041104110411051118BEFFFF78
:103F6000FFFFFFFFFFFFFFFFF07B6200E831C7317B
:103F7000410035A5FFFF5DEF4621C4100411041177
:103F800004110411E410A308769DFFF7FFFFB7ADFD
:103F9000A308A308C7319EE7FFF7FFF776A5A3089C
:103FA000E4100411041104110511051135A5FFFFDA
:103FB000FFFFFFFFFFFFFFFFDBDEA7298300C41029
:103FC000C410C4101CE79EEF0511E4100411041185
:103FD000041104110419C408E510D16BD16BC50894
:103FE0006400A50843002B32779DB3842519C410C3
:103FF000041104110411041125192609359DFFFF30
:10400000FFFFFFFFFFFFFFFFFFFFAF736200041919
:10401000051982000D5B8E9B6210051104110411BD
:104020000419E41085000511C439815A407B229C93
:1040300043AC03A4839B82728249C218A400C500CA
:10404000E41004190411051947196711EC5ABEFF51
:10405000FFFFFFFFFFFFFFFFDFFFDBDEC410E41009
:1040600004110511A41801C08388E400051904197E
:10407000C5084421438323D542FEE4FE27FF07FF02
:10408000A4FE64FE03FEA3FDE2FC42EC83B32462C3
:10409000E510C40804192619A81987210090D3BC7B
:1040A000FFFFFFFFFFFFFFFFDFFFFFFF107C42006E
:1040B00005190511832801D044F8A348E400C50878
:1040C000445A02EDE2FD02FE66FE74FFB8FF73FF84
:1040D000E7F6A6F645F6A4F5C3FC62FCC2FCC2FCFA
:1040E000E3CBC449061188198701A49001F8EC9A22
:1040F000FFFFFFFFFFFFFFFFFFFFFFFFBEF7E831FE
:1041000083000509824001C023F885F0A348A4007C
:10411000445A02FD23CCC2DC04FE28FE48F646F6D3
:1041200024F6E4F564FDE3FC62FCC2FC02E402DC7C
:10413000E2FCA47A48016701C47824F802F884B04C
:104140007DE7FFFFFFFFFFFFFFFFFFFFFFFFDBDE5E
:104150002519A300C43802E022D844F8A6F8A478B0
:104160006300432183728339829B21F561FD22FD27
:10417000E2FCA2FC42FC42FC42FC22AB8341C39223
:10418000045226012519A49844F823F802F8A4D073
:104190009EEFFFFFFFFFFFFFFFFFFFFFFFFFFFFFA0
:1041A0009AD68729A50043B822F823E065F8E8F8F5
:1041B00007C983484200A30084006329A27A62B33E
:1041C000A2CB62D302BB828A8339A400E500E5005A
:1041D000E508C46064D844F824F823F802F883881A
:1041E000DBC6FFFFFFFFFFFFFFFFFFFFFFFFFFFF3C
:1041F000FFFF3DE7505B083123E843F844F065F8E2
:1042000009F9ABF989D10689A34842180200420096
:1042100061008200620062008300A320C450A58870
:1042200085D865F844F844F823F823F803D08210C1
:10423000C7295DEFFFFFFFFFFFFFFFFFFFFFFFFF4E
:10424000FFFFFFFFFFFF6C32A53802D823F865F8A7
:1042500066F8A7F84AF90CFA4DFA4CEA0BD2A9B95C
:1042600068B147A927B107B907D1E7E8C7F8A7F8A8
:1042700065F865F844F823F803F802D0A328050987
:10428000C408EC5AFFFFFFFFFFFFFFFFFFFFFFFF28
:10429000FFFFFFFFFBDE0519C400A741E6C003F8DE
:1042A00086F8A7F887F886F8C7F829F98AF9ABF9EC
:1042B000ABF98BF96AF929F908F9C7F8A6F886F875
:1042C00065F864F823F802F006B12529E400E4104B
:1042D00025192519149DFFFFFFFFFFFFFFFFFFFFBB
:1042E000FFFFFFFF96AD620082083595BACE8BA224
:1042F00044D025F887F8A7F8C7F8A7F887F886F814
:1043000086F886F887F8A7F8A7F8A6F885F865F87C
:1043100064F824F064B80D93BBB6CF63830804112E
:10432000E4106621493A5DEFFFFFFFFFFFFFFFFF4B
:10433000FFFFFFFFD3944200E410BBCEFFFFBEE7B8
:1043400076B5CCAA07C145E045F846F866F886F888
:1043500086F886F886F865F845F865F865E844D08B
:1043600043A8018882903CD7FFEF5595830804113C
:10437000041105194619B394FFFFFFFFFFFFFFFF6C
:10438000FFFFFFFFB394410086215DDFFFFFFFFFCA
:10439000FFFFDFE77AC6D3B44EB32AC268D1E6E0A6
:1043A000A6E8A5E8A5E8E6D888C906A922A802A833
:1043B00000A000C800D8F7E5FFE7F8ADC410E4108E
:1043C0000411E41005118B4AFFFFFFFFFFFFFFFF01
:1043D000FFFFFFFF55A54100A7295DDFFFF7FFFFA6
:1043E000FFFFFFFFFFFFFFFFFFEF7DDFDBCE59CEBB
:1043F000F8CDD7CDF7C579CEFBBEABA203F045F81B
:1044000042D043E800F072D4FFDF39AEE410E4108C
:104410000411E41005118729FFFFFFFFFFFFFFFFD5
:10442000FFFFFFFF59CE830846211CD7FFF7FFFF90
:10443000FFFFFFFFFFFFFFFFFFFFFFFFFFFFFFFF8C
:10444000FFFFFFFFFFFFFFFFFFEF8BBA04F845F808
:1044500062E044F000F88EDBFFDFF8A5C410E41042
:10446000E4100411E4102519FFFFFFFFFFFFFFFF19
:10447000FFFFFFFFBEF78729830839B6FFF7DFF795
:10448000FFFFFFFFFFFFFFFFFFFFFFFFFFFFFFFF3C
:10449000FFFFFFFFFFFFFFFFBEE74ABA03F845F843
:1044A00064F844F800F86EE3FFD7F48C8308041135
:1044B000E410E410E4100519FFFFFFFFFFFFFFFF0A
:1044C000FFFFFFFFFFFFEF7300007284FFEFBEEFFF
:1044D000DFFFFFFFFFFFFFFFFFFFFFFFFFFFFFFF0C
:1044E000FFFFFFFFFFFFFFFFDFE78BBA03F845F891
:1044F00045F823F800F8D3D4FFD74E5B2100293AC2
:1045000055A58308C4102519FFFFFFFFFFFFFFFF1C
:10451000FFFFFFFFFFFFFBDEA308E8319EDF9EE702
:10452000BFEFFFFFFFFFFFFFFFFFFFFFFFFFFFFFEB
:10453000FFFFFFFFFFFFFFFFFFF751BC02E003F8A3
:1045400003F043E0ECC27ECFFCBE46212100D394B1
:10455000FFFF518400008729FFFFFFFFFFFFFFFFE0
:10456000FFFFFFFFFFFFFFFF51840000F48CFFEF10
:104570009EE7BFEFDFFFFFFFFFFFFFFFFFFFFFFF34
:10458000FFFFFFFFFFFFFFFFFFFF3DDF55BD52BCF9
:1045900072BCB7B55DC7FFDFF06B0000093ABFF72B
:1045A000FFFFFFFF149D55A5FFFFFFFFFFFFFFFF6C
:1045B000FFFFFFFFFFFFFFFFFFFFAC4AA408BBBEEA
:1045C000DFE77EE7BEEFDFF7DFFFFFFFFFFFFFFF65
:1045D000FFFFFFFFFFFFFFFFDFFFDFF7FFEFDFDF83
:1045E000BFD79ED7DFDFD8A583082611DBD6FFFF14
:1045F000FFFFFFFFFFFFFFFFFFFFFFFFFFFFFFFFCB
:10460000FFFFFFFFFFFFFFFF79EE8BDC2131A921C8
:104610003DCFBFDF7EDF9EE7BEEFBFEFDFF7DFF707
:10462000DFF7DFF7DFF7BFEFBEEF9EE77EDF5ED796
:104630005ED7DFDF9AB626194208EDA3BFFFFFFF62
:10464000FFFFFFFFFFFFFFFFFFFFFFFFFFFFFFFF7A
:10465000FFFFFFFFFFFF74DDC0DB00FE42EE024202
:1046600089217BB6DFDF7ED77EDF7EDF9EE79EE798
:104670009EE79EE79EE77EDF7EDF5DD75DD79EDF0C
:10468000FFE7F8A50711E31802C560FDE6D3DBEEEE
:10469000FFFFFFFFFFFFFFFFFFFFFFFFFFFFFFFF2A
:1046A000FFFFFFFF9EF784BAC1FC42FE82FEA2FE1E
:1046B0008183452174745EC7DFDF7ED75ED75DD707
:1046C0005ED75ED75DD75DD75ED79EDFFFE73DC77C
:1046D000F1638408425226E629FF86FEE0F36AC3AE
:1046E000FFFFFFFFFFFFFFFFFFFFFFFFFFFFFFFFDA
:1046F000FFFFFFFF18DEC1D2A2FD22FE42FE42FEF6
:1047000062FEE2D4416A494253743BA63EC7BFD71A
:10471000BFD7BFD7BFDFBFD73EC71AA6F263A7294F
:10472000824122B462FE83FEAAFE0FFF67FD63BAD8
:104730003CEFFFFFFFFFFFFFFFFFFFFFFFFFFFFF5C
:10474000FFFFFFFF9AE680D221FDC2FDE2F5C2F530
:1047500082F582FD62FD61DC219B846AE96A2C633B
:10476000AF6311746E632C63895A0452817AC2CB91
:10477000E2FC62FD82FDC2FDC2FDE4FD24FD62CAD1
:104780001CE7FFFFFFFFFFFFFFFFFFFFFFFFFFFF34
:10479000FFFFFFFFFFFFB1CC81D2C0F3C1FC02FDE0
:1047A00002FDE2FCC2FCC2FC81FC80FBC0C9A4810A
:1047B00035AD59CE719C218100DAA1FB82FCA2FCAF
:1047C00082FCA2FC02FD22FDE2FC00FC60DA90CC3F
:1047D000FFFFFFFFFFFFFFFFFFFFFFFFFFFFFFFFE9
:1047E000FFFFFFFFFFFFFFFF59DE0DC406CBE4D242
:1047F00003DB03DBE3DAC3D2A4C209B3D2BC9EF766
:10480000FFFFFFFFFFFFFBE60EB4A6BA83D2E3E291
:1048100002EB22EB22E303DBE4D26AC3B6D5FFFF4F
:10482000FFFFFFFFFFFFFFFF644800085848000834
:104830004848000838480008526F746174696F6E08
:104840003A32373000000000526F746174696F6E45
:104850003A31383000000000526F746174696F6E35
:104860003A393000526F746174696F6E3A300000EB
:1048700090480008000000204000000022210008AD
:10488000D048000840000020100800003221000835
:1048900000A24A040000000000000000010203041E
:1048A00006070809000000000000FFFF000000F8F4
:1048B000E0071F00E0FF1FF80000000000000000FC
:1048C00001020304010203040607080902040608A2
:04000005080000ED02
:00000001FF
